:020000040800F2
:1000000010340020290200083102000833020008E1
:10001000350200083702000839020008000000001D
:100020000000000000000000000000009101000836
:100030003D02000800000000D5010008E9050008A5
:10004000430200084302000843020008430200087C
:10005000430200084302000843020008430200086C
:10006000430200084302000843020008430200085C
:10007000430200084302000843020008430200084C
:10008000430200084302000843020008430200083C
:10009000430200084302000843020008430200082C
:1000A000430200084302000843020008430200081C
:1000B000430200084302000843020008430200080C
:1000C00043020008430200084302000843020008FC
:1000D00043020008430200084302000843020008EC
:1000E00043020008430200084302000800F002F83F
:1000F00000F03AF80AA090E8000C82448344AAF188
:100100000107DA4501D100F02FF8AFF2090EBAE885
:100110000F0013F0010F18BFFB1A43F0010318473B
:10012000A01C0000C01C0000103A24BF78C878C191
:10013000FAD8520724BF30C830C144BF04680C60ED
:10014000704700000023002400250026103A28BF35
:1001500078C1FBD8520728BF30C148BF0B60704739
:100160001FB51FBD10B510BD00F049F9114603B40D
:1001700000F0CDFA03BCFFF7F3FF00F021FB00F025
:1001800063F903B4FFF7EEFF03BC00F06BF9000066
:10019000224B19680868B0E8F00F80F30988BFF3B4
:1001A0006F8F4FF0000080F311884EF00D0E7047F6
:1001B0000000000006480068006880F3088862B606
:1001C00061B6BFF34F8FBFF36F8F00DF00BF00BF7B
:1001D00008ED00E0EFF30980BFF36F8F0F4B1A6853
:1001E00020E9F00F106008B54FF0100080F311887F
:1001F000BFF34F8FBFF36F8F01F008F94FF000008E
:1002000080F31188BDE8084019680868B0E8F00F6D
:1002100080F30988BFF36F8F704700BF4400002050
:10022000EFF3058070470000094880470948004700
:10023000FEE7FEE7FEE7FEE7FEE7FEE7FEE7FEE796
:10024000FEE7FEE704480549054A064B70470000F3
:1002500005060008ED000008102E002010340020D4
:100260001030002010300020032A40F2308010F0BF
:10027000030C00F0158011F8013BBCF1020F624441
:1002800098BF11F801CB00F8013B38BF11F8013BD2
:10029000A2F1040298BF00F801CB38BF00F8013B7F
:1002A00011F0030300F03080083AC0F0088051F8E4
:1002B000043B083A51F804CBA0E80810F5E7121DFA
:1002C0005CBF51F8043B40F8043BAFF30080D20719
:1002D00024BF11F8013B11F801CB48BF11F8012BE5
:1002E00024BF00F8013B00F801CB48BF00F8012B08
:1002F000704702F0FF0343EA032242EA024200F0A1
:1003000037B870477047704710B5203AC0F00B807F
:10031000B1E81850203AA0E81850B1E81850A0E809
:100320001850BFF4F5AF5FEA027C24BFB1E8185063
:10033000A0E8185044BF18C918C0BDE810405FEAD3
:10034000827C24BF51F8043B40F8043B08BF70474F
:10035000D20728BF31F8023B48BF11F8012B28BF54
:1003600020F8023B48BF00F8012B70474FF0000215
:100370000429C0F0128010F0030C00F01B80CCF1B7
:10038000040CBCF1020F18BF00F8012BA8BF20F825
:10039000022BA1EB0C0100F00DB85FEAC17C24BF79
:1003A00000F8012B00F8012B48BF00F8012B704723
:1003B0004FF0000200B5134694469646203922BFFE
:1003C000A0E80C50A0E80C50B1F12001BFF4F7AF49
:1003D000090728BFA0E80C5048BF0CC05DF804EB2B
:1003E000890028BF40F8042B08BF704748BF20F899
:1003F000022B11F0804F18BF00F8012B7047754693
:1004000000F02CF8AE4605006946534620F0070080
:10041000854618B020B5FFF715FFBDE820404FF026
:1004200000064FF000074FF000084FF0000B21F0DE
:100430000701AC46ACE8C009ACE8C009ACE8C009AB
:10044000ACE8C0098D46704710B50446AFF3008094
:100450002046BDE81040FFF794BE000000487047FA
:10046000B02D002001491820ABBEFEE72600020097
:1004700070472DE9F0410022CC7804F00F03E40628
:1004800001D58C7823430C784FF00F0714F0FF0F41
:100490004FF0010C1CD005680CFA02F40E882640BF
:1004A000A64211D1960007FA06F825EA080503FAD4
:1004B00006F848EA0505CE78282E02D0482E02D04C
:1004C00002E0446100E00461521C082AE4D30560A4
:1004D0000A88FF2A1ED94568002202F108060CFA94
:1004E00006F40E882640A64210D1960007FA06F8B8
:1004F00025EA080503FA06F848EA0505CE78282E0D
:1005000000D14461CE78482E00D10461521C082AE3
:10051000E3D34560BDE8F081054A002903D0916925
:100520000143916170479169814391617047000077
:1005300000100240AFF300800CB50022019200923F
:100540002748016841F4803101604FF4A0630168DD
:1005500001F4003100910199491C0191009911B9F0
:1005600001999942F3D10168890302D501210091D3
:1005700000E000920099012930D11A490A6842F03E
:1005800010020A600A6822F007020A600A6842F054
:1005900002020A604168416041684160416841F47B
:1005A00080614160416821F47C114160416841F4FF
:1005B000E8114160016841F08071016001688901C2
:1005C000FCD5416821F003014160416841F002011E
:1005D00041604168C1F381010229FAD10CBD0000DC
:1005E000001002400020024010B54FF0E0200069EA
:1005F00001F02CFA012803D0BDE8104000F05EBFE6
:1006000010BD000010B50F48016841F00101016004
:1006100041680D4A1140416001680C4A1140016077
:10062000016821F480210160416821F4FE014160EC
:100630004FF41F018160FFF77DFF05494FF0006017
:10064000086010BD001002400000FFF8FFFFF6FE3A
:1006500008ED00E010B5044600F0EEF8002806D0E2
:100660002068BDE810404FF0FF3101F0E3B810BD45
:1006700010B50446206800F0D7FD0021064A206826
:1006800052F82130984203D1002042F8210010BDD9
:10069000491C0529F4D310BD1804002070B5054687
:1006A000002028600024104E56F8240068B1641C15
:1006B000052CF9D300F0C0F818B1012000F014FFA8
:1006C0002860286870B1012070BD084904EB8400DF
:1006D00001EB0011012000F013FF46F82400286010
:1006E000012070BD002070BD180400208802002089
:1006F00010B5044600F0A0F8002807D000232068B9
:10070000BDE810401A46194600F06CBF10BD704796
:100710001CB564200190C820009000210D4C41F2CE
:10072000883541F6583651B1022300226946A06847
:1007300000F058FF304600F0A1FD0021F3E702234E
:10074000002201A9A06800F04DFF284600F096FDA8
:100750000121E8E70000002008B501210420FFF78F
:10076000DBFE0120ADF8000010208DF8030003200F
:100770008DF8020069460248FFF77BFE08BD0000C5
:100780000008014008B5C8240B4E0C4D4FF47A7791
:1007900000226946B06800F0D5FF012800D1009C16
:1007A000286880F0010028604FF47A706043B0FB45
:1007B000F7F000F063FDEBE7000000200C080140BB
:1007C0001CB5FFF7C9FF00220421012000F0A6FE9E
:1007D0001049886060B108460121CDE9001000236E
:1007E00080220DA10F4801F0E1F8012801D0FEE7B9
:1007F000FEE708480221001DCDE9001000238022F9
:1008000009A10C4801F0D2F8012800D0FEE700F061
:10081000B7FDFEE7000000204C45445F5441534BB8
:1008200000000000850700084354524C5F544153B8
:100830004B0000001107000810B5074C2078002875
:1008400001D0012010BD01F001F9012802D00120E2
:10085000207010BD002010BD0C0000202DE9F041DB
:1008600004460F46134EF5683068001D00F032FC58
:10087000601C07D137B13168BDE8F041091D0E4851
:1008800000F077BC2C4430684460AC4206D231683A
:10089000B06B091DBDE8F04100F053BC3168706BCE
:1008A000091D00F04EFCB06A844200D2B462BDE87B
:1008B000F081000044000020D42C002070B50446D4
:1008C00000F064FC1C4DA868401CA860286810B1AA
:1008D000686938B10CE02C60A868012808D100F0E4
:1008E0008FF905E02868E16AC06A884200D82C6068
:1008F000686A401C68626064E06A2969884200D9BD
:1009000028610E4900EB800001EB8000211D00F002
:1009100030FC00F049FC686900280CD02868E16AC6
:10092000C06A884207D206494FF080500860BFF382
:100930004F8FBFF36F8F70BD44000020242800202C
:1009400004ED00E038B500F021FC0E4C2068A8B999
:100950000D4800F0E8FB0C48143000F0E4FB0A48B6
:10096000E06014302061084B0020A03B009003F1B0
:1009700050021021052000F0E9FD2060BDE838405C
:1009800000F012BC80000020882D002070B50C4DB6
:100990000C4E11E000F0FAFBF068C468201D00F076
:1009A00099FBA868401EA8606868401E686000F057
:1009B000FBFB204600F053F868680028EAD170BDC0
:1009C00044000020C02C002030B40B46026C002AEA
:1009D0000CD0C1681144C1608468A14201D3016890
:1009E000C160C16830BC1846FFF73EBC30BC7047E0
:1009F0002DE9F041044617460026A56B226C002A1B
:100A000010D0C7B1E068FFF72FFCE168206C091A2D
:100A1000E1602268914202D2A168081AE060022FC8
:100A200016D017E02068A8B9A06801F07FF8064644
:100A30000020A0600EE06068FFF716FC216C606883
:100A400008446060A168884204D32068606001E0C7
:100A500005B16D1E6D1CA5633046BDE8F08110B573
:100A6000044694F85900002806D001280CD12046ED
:100A7000BDE8104000F0A4BB206B00F0A1FB2046B5
:100A8000BDE8104000F09CBB10BD416A002904D0B5
:100A9000006B0068C0F1380070470020704700000C
:100AA0000749CA681168002904D00021016019B102
:100AB000002070470121F9E7D06800687047000006
:100AC000800000204FF400510F48420706D0C01D9F
:100AD00020F007000C49411AC1F500510B4A106083
:100AE000002353600144083921F00701183A1160CE
:100AF0004B600B600B1A436001604068906050606F
:100B00004FF0004050617047240800203C00002056
:100B1000074E4FF08054074DFFF738FF306801282B
:100B2000FAD92C60BFF34F8FBFF36F8FF4E700004B
:100B30002428002004ED00E0002808D00021816076
:100B40000160C16000231A46194600F04BBD704792
:100B500070B51D46049C002909D02260E063216421
:100B60000121204600F002FD84F84C5070BD246045
:100B7000F4E72DE9F05F8246DDE90A580C9C0E4649
:100B800017469B46B900A522206BFFF7B2FB206BEE
:100B90007F1E00EB870020F00709002766B10020C8
:100BA0002218315C82F83410315C11B1401C1028DD
:100BB000F6D384F8437001E084F83470382D00D304
:100BC0003725E562E5642765201D00F0B7FA04F1DA
:100BD000180000F0B3FA2461C5F13800A061646226
:100BE000676584F858705A465146484600F064FAE2
:100BF0002060B8F1000F01D0C8F80040BDE8F09FB8
:100C000070B50024114D04EB840005EB800000F06A
:100C10008AFA641C382CF6D30D4800F084FA0C488C
:100C2000143000F080FA0A48283000F07CFA0848B6
:100C30003C3000F078FA0648503000F074FA05486D
:100C4000034941631431816370BD000024280020F2
:100C5000842C00204400002030B5134900E01146E8
:100C60000A688242FBD34B685C18844203D1406817
:100C70001844486008460D6844682318AB420DD1FB
:100C8000094B183B1B689A4206D0526822444260C6
:100C90000A681268026002E0036000E002608142BC
:100CA00000D0086030BD00003C00002070B500247A
:100CB000416000610C4D91420AD8D11A826991427B
:100CC00001D301240EE0011D286900F03AFA09E081
:100CD0009A4203D2994201D3012403E0011DE8683E
:100CE00000F02FFA204670BD8000002010B50446A9
:100CF00000F04CFAA06B20B1002400F055FA204619
:100D000010BD0124F9E710B5044600F03FFAA06BCE
:100D1000E16B884201D1012400E0002400F044FA94
:100D2000204610BDF8B505460E461348C068C06899
:100D3000C468201D00F0CEF994F82800410710D5B2
:100D4000A0692B46411932462046FFF7AFFF60B13C
:100D500000200346014600902A46204601F004F890
:100D600003E020F0010084F82800216A01B0204649
:100D7000BDE8F040084700008000002030B587B093
:100D8000344D5DE00398002803DADDE9042006997C
:100D900090470398002853DB059C606910B1201D23
:100DA00000F098F902A800F09FF8024603980A287C
:100DB00046D2DFE800F0050505252B390505252B72
:100DC00094F8280040F0010084F828000498A169F4
:100DD000034601442046FFF769FF20B3216A2046FD
:100DE000884794F8280040072AD5002000900498EE
:100DF000A169002342181946204600F0B5FF1FE004
:100E000014F8280F20F00100207019E094F8280051
:100E100040F0010084F828000498A061811813466E
:100E20002046FFF743FF0BE094F82800810703D426
:100E3000204600F0C5F903E020F0010084F8280006
:100E4000002203A9286800F07DFC00289AD107B091
:100E500030BD000080000020F8B506460D4600F0C9
:100E6000CDFA684600F040F80446009810B100F052
:100E7000F7FEF8BD45B9A64206D800F0F1FE2146BE
:100E80003046FFF74FFFF8BD0C481DB101690968F6
:100E900091B10025311B2A46006800F0CCF900F022
:100EA000DFFE0028EFD106494FF080500860BFF305
:100EB0004F8FBFF36F8FF8BD0125EBE78000002057
:100EC00004ED00E00748416B0968002905D0416B3B
:100ED000C968C9684968816270474FF0FF31816213
:100EE000704700004400002070B5054600F0BCFDCE
:100EF0000446074EB068844204D200F00BF801208B
:100F0000286001E000202860B460204670BD000029
:100F100080000020F8B5154E1FE0C0680568C46861
:100F2000201D00F0D7F8216A2046884794F8280051
:100F3000400712D5A0692844A84206D96060246100
:100F4000211DF06800F0FDF807E00020034601468F
:100F500000902A46204600F007FFF068016800294B
:100F6000DBD1F0683169F1603061F8BD80000020AC
:100F7000102080F31188BFF34F8FBFF36F8FFEE710
:100F800008B56846FFF78CFD0099FFF765FFFFF78E
:100F9000F5FEF6E72DE9F041044600F0F7F894F984
:100FA000455004F1240609E0606A48B1304600F07B
:100FB00025FE08B100F084F96D1E6DB2002DF3DC42
:100FC0004FF0FF3684F8456000F0EEF800F0DEF8F0
:100FD00094F9445004F1100709E0206948B13846FB
:100FE00000F00CFE08B100F06BF96D1E6DB2002D23
:100FF000F3DC84F84460BDE8F04100F0D5B80000AF
:101000002DE9F0410546002600F0F8F9234F386835
:1010100008B9FFF757FD7869054239D13DB1083568
:10102000680704D005F00700C0F1080005447DB34F
:10103000786885422CD8194918310846046801E0BF
:10104000214604466068A84202D220680028F7D1F1
:10105000386884421CD00E680836206808606068D2
:10106000411B102904D9601941606560FFF7F4FD48
:1010700061687868401A7860BA68904200D2B860B7
:1010800078690143616000202060F868401CF860C6
:1010900000F0E6FD3046BDE8F081000024000020AD
:1010A00004490868002803D00868026D521C0265D4
:1010B000086870474400002020384FF08073C361F7
:1010C00021F0010181610249416140F82029704706
:1010D000710F00080169D0E901329A60D0E901235B
:1010E0005A604A68824201D182684A6000220261E5
:1010F0000868401E0860086870470000034B0360E2
:1011000003F15C0008608020106070472C04002010
:10111000034B036003F15C000860502010607047CF
:1011200088060020704700F1080141604FF0FF324F
:101130008260C1600161002101607047002101618E
:10114000704730B50C68621C02D000F1080202E062
:10115000026904E01A4653681D68A542FAD953682B
:101160004B6099608A60516008610168491C0160A8
:1011700030BD42684A6093688B60936859609160A3
:1011800008610168491C016070470000102080F36D
:101190001188BFF34F8FBFF36F8F02480168491C5E
:1011A000016070479400002004490868401E0860F0
:1011B000002801D180F311887047000094000020BE
:1011C00070B500281BD0083804460D4D6068696969
:1011D000084214D02268002A11D18843606000F0D0
:1011E0000DF960686968084468602046FFF734FDBF
:1011F0002869401C2861BDE8704000F031BD70BD19
:10120000240000204FF0E0200021016181610549A8
:101210004FF47A720968B1FBF2F1491E416107216E
:10122000016170471000002090F84610002901D19C
:10123000FFF7C6BF704770B504460D461646FFF768
:10124000A5FF94F944304FF000005B1C01D184F8F5
:10125000440094F94510491C01D184F84500FFF77A
:10126000A3FFA06B28B93246294604F1240000F000
:101270003DF82046BDE87040FFF78CBE10B5024631
:101280000020002A07D000F0B9F800211046FFF72F
:10129000E5FA00F0E5FC002807D104494FF0805042
:1012A0000860BFF34F8FBFF36F8F10BD04ED00E0F8
:1012B00002490A6A0260C968416070474400002020
:1012C00001490120C86170474400002010B50C4658
:1012D000054909681831FFF734FF2046BDE8104082
:1012E0000121FFF7BBBA00004400002070B50D4695
:1012F0001446074909681831FFF73BFF0CB14FF05E
:10130000FF3521462846BDE87040FFF7A7BA000028
:101310004400002070B50A46044600282AD0E16C3B
:10132000914200D21146E06A884223D0226D012A00
:1013300020D1E162A269002A02DBC1F13801A1617A
:101340000D4D00EB8000616905EB8000814211D1F9
:10135000201DFFF7BFFE0949E06A0A69904200D9E3
:10136000086100EB800005EB8000211DBDE87040A6
:10137000FFF7FFBE70BD00002428002044000020BD
:1013800030B587B000250695059504AA05A906A8DD
:10139000FFF7B4FEDDE90510CDE90051029000230E
:1013A00012A11448049A00F033FB134CE06208B118
:1013B000012000E00020012801D100F0ABFC012851
:1013C00011D1102080F31188BFF34F8FBFF36F8FBF
:1013D0004FF0FF30A06201206061E56007B0BDE81A
:1013E000304000F053B807B030BD000049444C45D0
:1013F00000000000110B0008440000200248016BAF
:10140000491C0163704700004400002010B51D4CCA
:10141000206B002802D00120E06110BD0020E061B7
:101420002068006B4FF0A5320168914208D14168F5
:10143000914205D18168914202D1C068904204D0A6
:10144000216820683431FFF76DFE20690E4900E005
:10145000401E00EB800251F82220002AF8D000EB59
:10146000800201EB82014A6852684A6001F1080378
:101470009A4201D152684A604968C9682160206176
:1014800010BD0000440000202428002010B50948A9
:10149000016841F47F010160016841F07F41016012
:1014A000FFF7B0FE044900200860FEF783FE00202D
:1014B00010BD000020ED00E09400002010B51020C9
:1014C00080F31188BFF34F8FBFF36F8F00F0D2FA14
:1014D00018B104494FF080500860002080F3118853
:1014E00010BD000004ED00E010B50246002101200F
:1014F00000F014F804462046FFF71EFB204610BDFE
:1015000038B50B46002200901146012000F01EF86D
:1015100004462046FFF710FB204638BDF8B50546C7
:101520000E46174605FB06F05030FFF769FD0446EE
:1015300054B122465032002084F846003B463146E2
:1015400028460094FFF704FB2046F8BD38B51C463A
:10155000049B0546002C06D0012084F8460028464E
:101560000094FFF7F5FA204638BD000070B5044638
:101570000D46FFF70BFED4E90F12206801FB0200B5
:10158000A0600020A06320686060E06B226C21688E
:10159000401E00FB0210E0604FF0FF3084F8440072
:1015A00084F8450004F110004DB1FFF7BCFD04F1D3
:1015B0002400FFF7B8FDFFF7F7FD012070BD21699A
:1015C0000029F8D000F01AFB0028F4D004494FF0AD
:1015D00080500860BFF34F8FBFF36F8FEBE70000C1
:1015E00004ED00E02DE9FF4782B004468A469946A3
:1015F0000025A8464FF08056374FFFF7C7FDA06B78
:10160000E16B884206D3B9F1020F03D00498F8B118
:1016100015B325E04A4651462046FFF7E9F9616ACD
:1016200051B104F1240000F0E9FA58B13E60BFF373
:101630004F8FBFF36F8F05E020B13E60BFF34F8F38
:10164000BFF36F8FFFF7B0FD012006B0BDE8F08754
:10165000FFF7AAFD0020F8E76846FFF729FE0125FD
:10166000FFF7A2FDFFF7CAFEFFF790FD94F94400D3
:10167000401C01D184F8448094F94500401C01D1FC
:1016800084F84580FFF790FD04A9684600F064F9EE
:1016900030B12046FFF77EFC00F0E2FA0020D4E7EC
:1016A0002046FFF730FB88B104F110000499FFF7E2
:1016B0000DFE2046FFF76EFC00F0D2FA00289CD108
:1016C0003E60BFF34F8FBFF36F8F96E72046FFF763
:1016D00061FC00F0C5FA90E704ED00E02DE9F0416F
:1016E000174604461A461020EFF3118680F311883E
:1016F000BFF34F8FBFF36F8FA06BE36B984206D39E
:10170000022A04D0002086F31188BDE8F08194F904
:101710004550A06B2046FFF76BF9681C04D06D1C88
:1017200084F845500120EEE7606A0028FAD004F101
:10173000240000F063FA0028F4D0002FF2D001203A
:101740003860EFE72DE9F74783B004468A46002664
:1017500000274FF08058DFF8D890FFF717FDA56BF2
:10176000C5B151462046FFF72FF96D1EA5632069CC
:1017700050B104F1100000F041FA28B1C9F800801E
:10178000BFF34F8FBFF36F8FFFF70EFD012006B041
:10179000BDE8F087059808B126B107E0FFF704FD22
:1017A0000020F4E701A8FFF783FD0126FFF7FCFC0A
:1017B000FFF724FEFFF7EAFC94F94400401C01D136
:1017C00084F8447094F94500401C01D184F84570B8
:1017D000FFF7EAFC05A901A800F0BEF858B12046C1
:1017E000FFF7D8FB00F03CFA2046FFF77FFA00280D
:1017F000B3D00020CBE72046FFF778FA90B104F190
:1018000024000599FFF762FD2046FFF7C3FB00F0B7
:1018100027FA0028A1D1C9F80080BFF34F8FBFF38A
:101820006F8F9AE72046FFF7B5FB00F019FA94E7AF
:1018300004ED00E02DE9F34383B004460025A946FA
:1018400000264FF08057DFF80C81FFF79FFCA06B5C
:10185000C8B1401EA063206810B9FFF721FCA0604A
:10186000206950B104F1100000F0C8F928B1C8F89F
:101870000070BFF34F8FBFF36F8FFFF795FC012010
:1018800005B0BDE8F083049808B125B107E0FFF783
:101890008BFC0020F4E701A8FFF70AFD0125FFF704
:1018A00083FCFFF7ABFDFFF771FC94F94400401C8B
:1018B00001D184F8446094F94500401C01D184F8BA
:1018C0004560FFF771FC04A901A800F045F8C8B114
:1018D0002046FFF75FFB00F0C3F92046FFF706FA4A
:1018E0000028B2D0B9F1000F0AD0FFF74FFC204614
:1018F000FFF7CBF80146A068FFF70CFDFFF754FC9B
:101900000020BDE72046FFF7F1F9E0B1206838B9C3
:10191000FFF73CFCA06800F033F98146FFF744FC78
:1019200004F124000499FFF7D1FC2046FFF732FBB5
:1019300000F096F9002888D1C8F80070BFF34F8FE7
:10194000BFF36F8F81E72046FFF724FB00F088F993
:101950007BE7000004ED00E02DE9F04106460C466F
:10196000FFF714FC1048C2687568531B21684F1CB0
:1019700007D03768006A874205D0954203D8012412
:101980000DE000240BE0994206D9C81A20603046C9
:10199000FFF78EFC002402E0002020600124FFF706
:1019A00003FC2046BDE8F081440000202DE9FF5FE4
:1019B0008146DDE90E788A4616469B46B000FFF761
:1019C0001FFB054628000AD05C20FFF719FB0446E0
:1019D0000CB1256304E02846FFF7F2FB00E0002489
:1019E0009CB1002084F85900CDE90240CDE900788F
:1019F0005B46324651464846FFF7BBF82046FEF7A5
:101A00005DFF012004B0BDE8F09F4FF0FF30F9E723
:101A1000F0B585B00646DDE90A700C9C0025002C67
:101A200010D078B12063022084F8590004A8CDE9D1
:101A30000070CDE902453046FFF79BF82046FEF7DF
:101A40003DFF00E00495049805B0F0BD05484169EC
:101A5000002903D0006B18B10020704701207047A7
:101A600002207047440000200148C0687047000011
:101A7000440000202DE9F04100262A4F386B002851
:101A800005D0B869401CB8613046BDE8F081FD68FA
:101A90006D1CFD6045B9786BB96B7963B863386AC2
:101AA000401C3862FFF70EFAB86ADFF87C80854286
:101AB0000DD3786B006838B1786BC068C468606813
:101AC000854212D2B86202E04FF0FF30B862386847
:101AD000C06A00EB800058F82000012800D90126D8
:101AE000F8690028D0D00126CEE7201DFFF7F2FAD2
:101AF000A06A18B104F11800FFF7ECFAE06A39693E
:101B0000884200D9386100EB800008EB8000211D7D
:101B1000FFF72FFBE06A3968C96A8842C9D30126FA
:101B2000C7E70000440000202428002010B5044628
:101B30000020002C1FD0216D491E2165E36CE26A54
:101B40009A4218D0002916D1201DFFF7C3FAE06C85
:101B5000E062C0F13800A0610749E06A0A6990427A
:101B600000D90861054900EB800001EB8000211DD0
:101B7000FFF7FFFA012010BD4400002024280020B8
:101B800070B504460020002C2CD01A4DE16A2A685A
:101B9000D26A914227D2A069002804DB2868C06A73
:101BA000C0F13800A061E06A134E00EB800061696B
:101BB00006EB8000814211D1201DFFF78BFA2868C7
:101BC000C06AE0622969884200D9286100EB800080
:101BD00006EB8000211DFFF7CCFA02E02868C06AFE
:101BE000E062012070BDE16C2A68D26A9142F9D2AC
:101BF000012070BD440000202428002070B5C0687A
:101C0000C46804F118000646FFF764FA114D2A6B08
:101C100062B131461048FFF7ACFAE06A2968C96A38
:101C2000884214D901200121E96170BD201DFFF710
:101C300051FAE06A2969884200D92861074900EB16
:101C4000800001EB8000211DFFF793FAE5E70020FB
:101C500070BD000044000020AC2C0020242800208F
:101C60002DE9F04100240027FFF790FA254D286B5D
:101C7000401E2863286BE8BBA868D8B3DFF88880CB
:101C800001261CE0D8F80C00C46804F11800FFF726
:101C900021FA201DFFF71EFAE06A2969884200D95F
:101CA00028611A4900EB800001EB8000211DFFF73D
:101CB00060FAE06A2968C96A884200D3EE61D8F800
:101CC00000000028DED10CB1FFF7FCF8AC6944B18C
:101CD000FFF7D0FE00B1EE61641E002CF8D10020A9
:101CE000A861E86930B10127094938070860BFF3E6
:101CF0004F8F00E001E0BFF36F8FFFF755FA3846D2
:101D0000BDE8F08144000020AC2C002024280020F5
:101D100004ED00E030B587B00024FEF713FE0E4D51
:101D20002868B0B100200690059004AA05A906A86D
:101D3000FFF7EEF9DDE905102822CDE90021029038
:101D4000002306A10748049AFFF762FE686000B10D
:101D5000012407B0204630BD80000020546D722061
:101D600053766300810F00082DE9FF4106460A9F64
:101D70009C460020114D2C68002C0ED00091019241
:101D80000296062913DAFFF761FE022808D0002325
:101D90001A4669462868FFF725FC04B0BDE8F081C3
:101DA00000233A4669462868FFF71CFCF5E7002344
:101DB000624669462046FFF791FCEEE7800000206E
:101DC000E01D000800000020980000002801000825
:101DD000781E0008980000207833000044010008B5
:101DE00000000000000000000000000000000000F3
:101DF00000A24A04000000000000000001020304E9
:101E000006070809000000000000000000000000B4
:101E100000000000000000000000000000000000C2
:101E200000000000000000000000000000000000B2
:101E300000000000000000000000000000000000A2
:101E40000000000000000000000000000000000092
:101E50000000000000000000000000000000000082
:101E60000000000000000000000000000000000072
:081E700000000000AAAAAAAAC2
:04000005080000ED02
:00000001FF
